{
  "contractName": "Order",
  "abi": [
    {
      "constant": false,
      "inputs": [
        {
          "name": "_toAdd",
          "type": "address"
        }
      ],
      "name": "AddProduct",
      "outputs": [],
      "payable": false,
      "stateMutability": "nonpayable",
      "type": "function"
    }
  ],
  "bytecode": "0x608060405234801561001057600080fd5b50610119806100206000396000f300608060405260043610603f576000357c0100000000000000000000000000000000000000000000000000000000900463ffffffff1680632b8fe48a146044575b600080fd5b348015604f57600080fd5b506082600480360381019080803573ffffffffffffffffffffffffffffffffffffffff1690602001909291905050506084565b005b60008190806001815401808255809150509060018203906000526020600020016000909192909190916101000a81548173ffffffffffffffffffffffffffffffffffffffff021916908373ffffffffffffffffffffffffffffffffffffffff16021790555050505600a165627a7a72305820c66a5a4d4deafd1430a3dfb90f9556b8676573ab823cb794e3b9ba7f00da7dc50029",
  "source": "pragma solidity ^0.4.7;\r\nimport \"./Product.sol\";\r\n\r\ncontract Order{\r\n    Product[] private productsList;\r\n\r\n    function AddProduct(Product _toAdd) public\r\n    {\r\n        productsList.push(_toAdd);\r\n    }\r\n}",
  "sourcePath": "/home/premdas/Projects/OTS/contracts/Order.sol",
  "compiler": {
    "name": "solc",
    "version": "0.4.24+commit.e67f0147.Emscripten.clang"
  },
  "schemaVersion": "2.0.0",
  "updatedAt": "2018-07-18T12:41:31.820Z"
}