{
  "contractName": "Product",
  "abi": [
    {
      "constant": true,
      "inputs": [],
      "name": "ITEM_FACTORY",
      "outputs": [
        {
          "name": "",
          "type": "address"
        }
      ],
      "payable": false,
      "stateMutability": "view",
      "type": "function"
    },
    {
      "constant": true,
      "inputs": [],
      "name": "name",
      "outputs": [
        {
          "name": "",
          "type": "bytes32"
        }
      ],
      "payable": false,
      "stateMutability": "view",
      "type": "function"
    },
    {
      "constant": true,
      "inputs": [],
      "name": "DATABASE_CONTRACT",
      "outputs": [
        {
          "name": "",
          "type": "address"
        }
      ],
      "payable": false,
      "stateMutability": "view",
      "type": "function"
    },
    {
      "constant": false,
      "inputs": [
        {
          "name": "_description",
          "type": "bytes32"
        },
        {
          "name": "_lon",
          "type": "int256"
        },
        {
          "name": "_lat",
          "type": "int256"
        },
        {
          "name": "_timeStamp",
          "type": "uint256"
        }
      ],
      "name": "addAction",
      "outputs": [],
      "payable": false,
      "stateMutability": "nonpayable",
      "type": "function"
    },
    {
      "constant": true,
      "inputs": [
        {
          "name": "",
          "type": "uint256"
        }
      ],
      "name": "actions",
      "outputs": [
        {
          "name": "handler",
          "type": "address"
        },
        {
          "name": "description",
          "type": "bytes32"
        },
        {
          "name": "lon",
          "type": "int256"
        },
        {
          "name": "lat",
          "type": "int256"
        },
        {
          "name": "timestamp",
          "type": "uint256"
        },
        {
          "name": "blockNumber",
          "type": "uint256"
        }
      ],
      "payable": false,
      "stateMutability": "view",
      "type": "function"
    },
    {
      "constant": true,
      "inputs": [],
      "name": "id",
      "outputs": [
        {
          "name": "",
          "type": "uint256"
        }
      ],
      "payable": false,
      "stateMutability": "view",
      "type": "function"
    },
    {
      "inputs": [
        {
          "name": "_id",
          "type": "uint256"
        },
        {
          "name": "_name",
          "type": "bytes32"
        },
        {
          "name": "_description",
          "type": "bytes32"
        },
        {
          "name": "_creationTime",
          "type": "uint256"
        },
        {
          "name": "_price",
          "type": "uint256"
        },
        {
          "name": "_lon",
          "type": "int256"
        },
        {
          "name": "_lat",
          "type": "int256"
        },
        {
          "name": "_DATABASE_CONTRACT",
          "type": "address"
        },
        {
          "name": "_PRODUCT_FACTORY",
          "type": "address"
        }
      ],
      "payable": false,
      "stateMutability": "nonpayable",
      "type": "constructor"
    },
    {
      "payable": false,
      "stateMutability": "nonpayable",
      "type": "fallback"
    }
  ],
  "bytecode": "0x608060405234801561001057600080fd5b50604051610120806108f68339810180604052810190808051906020019092919080519060200190929190805190602001909291908051906020019092919080519060200190929190805190602001909291908051906020019092919080519060200190929190805190602001909291905050506000896002819055508860038160001916905550876005816000191690555085600781905550866006819055506000600860006101000a81548160ff021916908360038111156100d057fe5b0217905550826000806101000a81548173ffffffffffffffffffffffffffffffffffffffff021916908373ffffffffffffffffffffffffffffffffffffffff16021790555081600160006101000a81548173ffffffffffffffffffffffffffffffffffffffff021916908373ffffffffffffffffffffffffffffffffffffffff1602179055506101917f50726f64756374206372656174696f6e0000000000000000000000000000000086868a610276640100000000026401000000009004565b6000809054906101000a900473ffffffffffffffffffffffffffffffffffffffff1690508073ffffffffffffffffffffffffffffffffffffffff16624077c1306040518263ffffffff167c0100000000000000000000000000000000000000000000000000000000028152600401808273ffffffffffffffffffffffffffffffffffffffff1673ffffffffffffffffffffffffffffffffffffffff168152602001915050600060405180830381600087803b15801561024f57600080fd5b505af1158015610263573d6000803e3d6000fd5b50505050505050505050505050506103f9565b61027e6103a9565b33816000019073ffffffffffffffffffffffffffffffffffffffff16908173ffffffffffffffffffffffffffffffffffffffff16815250508481602001906000191690816000191681525050838160400181815250508281606001818152505081816080018181525050438160a00181815250506004819080600181540180825580915050906001820390600052602060002090600602016000909192909190915060008201518160000160006101000a81548173ffffffffffffffffffffffffffffffffffffffff021916908373ffffffffffffffffffffffffffffffffffffffff1602179055506020820151816001019060001916905560408201518160020155606082015181600301556080820151816004015560a082015181600501555050505050505050565b60c060405190810160405280600073ffffffffffffffffffffffffffffffffffffffff16815260200160008019168152602001600081526020016000815260200160008152602001600081525090565b6104ee806104086000396000f300608060405260043610610078576000357c0100000000000000000000000000000000000000000000000000000000900463ffffffff1680630449d6f61461008a57806306fdde03146100e1578063301374c61461011457806351a222241461016b57806383240f83146101ba578063af640d0f14610252575b34801561008457600080fd5b50600080fd5b34801561009657600080fd5b5061009f61027d565b604051808273ffffffffffffffffffffffffffffffffffffffff1673ffffffffffffffffffffffffffffffffffffffff16815260200191505060405180910390f35b3480156100ed57600080fd5b506100f66102a3565b60405180826000191660001916815260200191505060405180910390f35b34801561012057600080fd5b506101296102a9565b604051808273ffffffffffffffffffffffffffffffffffffffff1673ffffffffffffffffffffffffffffffffffffffff16815260200191505060405180910390f35b34801561017757600080fd5b506101b860048036038101908080356000191690602001909291908035906020019092919080359060200190929190803590602001909291905050506102ce565b005b3480156101c657600080fd5b506101e560048036038101908080359060200190929190505050610401565b604051808773ffffffffffffffffffffffffffffffffffffffff1673ffffffffffffffffffffffffffffffffffffffff1681526020018660001916600019168152602001858152602001848152602001838152602001828152602001965050505050505060405180910390f35b34801561025e57600080fd5b5061026761046c565b6040518082815260200191505060405180910390f35b600160009054906101000a900473ffffffffffffffffffffffffffffffffffffffff1681565b60035481565b6000809054906101000a900473ffffffffffffffffffffffffffffffffffffffff1681565b6102d6610472565b33816000019073ffffffffffffffffffffffffffffffffffffffff16908173ffffffffffffffffffffffffffffffffffffffff16815250508481602001906000191690816000191681525050838160400181815250508281606001818152505081816080018181525050438160a00181815250506004819080600181540180825580915050906001820390600052602060002090600602016000909192909190915060008201518160000160006101000a81548173ffffffffffffffffffffffffffffffffffffffff021916908373ffffffffffffffffffffffffffffffffffffffff1602179055506020820151816001019060001916905560408201518160020155606082015181600301556080820151816004015560a082015181600501555050505050505050565b60048181548110151561041057fe5b90600052602060002090600602016000915090508060000160009054906101000a900473ffffffffffffffffffffffffffffffffffffffff16908060010154908060020154908060030154908060040154908060050154905086565b60025481565b60c060405190810160405280600073ffffffffffffffffffffffffffffffffffffffff168152602001600080191681526020016000815260200160008152602001600081526020016000815250905600a165627a7a72305820a64ec1502d1259bd8894557cd5988f215ce512582e75e7b925663525dd6ebff00029",
  "source": "pragma solidity ^0.4.23;\r\nimport \"./Item.sol\";\r\n\r\n/*\r\n    Copyright 2018, Premdas\r\n\r\n    This program is free software: you can redistribute it and/or modify\r\n    it under the terms of the GNU General Public License as published by\r\n    the Free Software Foundation, either version 3 of the License, or\r\n    (at your option) any later version.\r\n\r\n    This program is distributed in the hope that it will be useful,\r\n    but WITHOUT ANY WARRANTY; without even the implied warranty of\r\n    MERCHANTABILITY or FITNESS FOR A PARTICULAR PURPOSE.  See the\r\n    GNU General Public License for more details.\r\n\r\n    You should have received a copy of the GNU General Public License\r\n    along with this program.  If not, see <http://www.gnu.org/licenses/>.\r\n */\r\n\r\n/* @title Product Contract\r\n   @author Premdas \r\n   @dev This contract represents a product in the OTS\r\n   platform. This product lets the handlers to register actions on it or even combine\r\n   it with other products. */\r\ncontract Product is Item{\r\n   \r\n    \r\n    \r\n    bytes32 private description;\r\n    uint private creationTime;\r\n\r\n    uint private price;\r\n    enum ProductStatus{Created,InStock,InShipment,Deliverd}\r\n    ProductStatus private status;\r\n    // @dev all the actions which have been applied to the Product.\r\n   \r\n\r\n    constructor(uint _id, bytes32 _name, bytes32 _description,uint _creationTime, uint _price, int _lon, int _lat, address\r\n     _DATABASE_CONTRACT, address _PRODUCT_FACTORY) public\r\n    {\r\n        id = _id;\r\n        name = _name;\r\n        description = _description;\r\n        price = _price;\r\n        creationTime = _creationTime;\r\n        status = ProductStatus.Created;\r\n\r\n        DATABASE_CONTRACT = _DATABASE_CONTRACT;\r\n        ITEM_FACTORY = _PRODUCT_FACTORY;\r\n\r\n        addAction(\"Product creation\", _lon, _lat, _creationTime);\r\n        Database database = Database(DATABASE_CONTRACT);\r\n        database.storeItemReference(this);\r\n    }\r\n \r\n    function () public{\r\n        // If anyone wants to send Ether to this contract, the transaction gets rejected\r\n        revert();\r\n    }\r\n\r\n    \r\n}\r\n\r\ncontract ProductFactory {\r\n\r\n      /////////////////\r\n     // Constructor //\r\n    /////////////////\r\n\r\n    /* @notice Constructor to create a Product Factory */\r\n    constructor() public {}\r\n\r\n    function () public {\r\n        // If anyone wants to send Ether to this contract, the transaction gets rejected\r\n        revert();\r\n    }\r\n\r\n    /* @notice Function to create a Product\r\n       @param _id The id of the Product\r\n       @param _name The name of the Product\r\n       @param _description about the Product,\r\n              generally as a JSON object.\r\n       @param _timeStamp the UNIXTIME of creation */\r\n    function createProduct( \r\n        uint _id, bytes32 _name, bytes32 _description,uint _creationTime, \r\n        uint _price, int _lon, int _lat, address DATABASE_CONTRACT) public returns(address) {\r\n        return new Product(_id, _name, _description, _creationTime, _price, _lon, _lat, DATABASE_CONTRACT, this);\r\n    }\r\n}",
  "sourcePath": "/home/premdas/Projects/OTS/contracts/Product.sol",
  "compiler": {
    "name": "solc",
    "version": "0.4.24+commit.e67f0147.Emscripten.clang"
  },
  "schemaVersion": "2.0.0",
  "updatedAt": "2018-07-18T12:41:31.822Z"
}